:100000000C9434000C9451000C9451000C94510049
:100010000C9451000C9451000C9451000C9451001C
:100020000C9451000C9451000C9451000C9451000C
:100030000C9451000C9451000C9451000C945100FC
:100040000C9466010C9451000C9451000C945100D6
:100050000C9451000C9451000C9451000C945100DC
:100060000C9451000C94510011241FBECFEFD8E026
:10007000DEBFCDBF11E0A0E0B1E0E0E2F5E002C0FC
:1000800005900D92A431B107D9F721E0A4E1B1E0C8
:1000900001C01D92A634B207E1F70E94B0010C9492
:1000A0008E020C9400003FB7F89480912E0190913D
:1000B0002F01A0913001B091310126B5A89B05C058
:1000C0002F3F19F00196A11DB11D3FBFBA2FA92FD7
:1000D000982F8827BC01CD01620F711D811D911DD4
:1000E00042E0660F771F881F991F4A95D1F7089540
:1000F000CF92DF92EF92FF920E9453006B017C013E
:100100000E9453006C197D098E099F09683E734057
:1001100081059105A8F3FF90EF90DF90CF900895AF
:10012000CF93DF9300D0CDB7DEB789836A8389810F
:100130008130B1F489813A8120912801082E000C88
:10014000990B01C0880F3A95EAF7822B809328011A
:10015000809128018BB90F900F90DF91CF91089576
:1001600089818111F5CF3A812091280181E090E0C9
:1001700002C0880F991F3A95E2F7809590958223E7
:10018000E5CF60E080E00E94900061E080E00E94A6
:10019000900062E080E00E9490000E94780060E0A1
:1001A00080E00E94900061E080E00E94900062E0A8
:1001B00081E00E9490000E94780060E080E00E9450
:1001C000900061E080E00E94900062E080E00C948A
:1001D000900060E081E00E94900061E080E00E9479
:1001E000900062E080E00E9490000E94780060E051
:1001F00081E00E94900061E080E00E94900062E057
:1002000081E00E9490000E94780060E081E00E94FE
:10021000900061E080E00E94900062E080E00C9439
:1002200090000F931F93CF93DF9300D000D000D0A6
:100230001F92CDB7DEB784E08E8301E010E08E819F
:1002400088300CF042C06E8181E00E94900086B13F
:10025000898389818C830E9478008C81882389F12D
:100260008E818B831F828F8184305CF58C812F81FE
:10027000082E000C990BA80102C0440F551F2A95A7
:10028000E2F784179507A9F48F818D838B819D8177
:10029000880F880F9F5F890F8A838A8127960FB600
:1002A000F894DEBF0FBECDBFDF91CF911F910F91AC
:1002B00008956E8180E00E9490008F818F5F8F8310
:1002C000D2CF8E818F5F8E83BACFE8CF1F920F92ED
:1002D0000FB60F9211242F933F938F939F93AF9359
:1002E000BF9380912A0190912B01A0912C01B09194
:1002F0002D013091290123E0230F2D3758F5019668
:10030000A11DB11D2093290180932A0190932B01F7
:10031000A0932C01B0932D0180912E0190912F017B
:10032000A0913001B09131010196A11DB11D8093C2
:100330002E0190932F01A0933001B0933101BF9112
:10034000AF919F918F913F912F910F900FBE0F9082
:100350001F90189526E8230F0296A11DB11DD2CF3C
:10036000CF93DF9300D01F92CDB7DEB7789484B5DA
:10037000826084BD84B5816084BD85B5826085BDA1
:1003800085B5816085BD80916E00816080936E002F
:100390001092810080918100826080938100809121
:1003A00081008160809381008091800081608093D2
:1003B00080008091B10084608093B1008091B00092
:1003C00081608093B00080917A00846080937A008D
:1003D00080917A00826080937A0080917A008160B7
:1003E00080937A0080917A00806880937A001092DE
:1003F000C1008FEF8AB984B917B888E385B90E9424
:10040000C10081E085B90E94C10080E885B90E94E1
:10041000C1008FE085B90E94C10086E085B90E94C5
:10042000C10019821A82EA810E2E000CFF0BE050E7
:10043000FF4F8081882321F08A818F5F8A83F3CFE9
:100440008A81882389F0E9810E2E000CFF0BE05091
:10045000FF4F808185B90E94E90089818F5F898380
:100460008A8181508A83ECCF80EC85B90E94C100DB
:1004700007E388E3F82E99E3E92E2FE2D22E34E346
:10048000C32E45E3B42E56E3A52E6AE2962E71E301
:10049000872EE2E37E2EF3E36F2EADE25A2E1DE3AC
:1004A00000933301F0923401E0923501D09236018D
:1004B000C0923701B0923801A092390190923A016E
:1004C00080923B0170923C0160923D0150923E014E
:1004D00010933F0180E380934001109341018BE230
:1004E000809342010E9411018B838B818823D1F379
:1004F0008B818D3041F400E010E001151105E9F326
:100500000E940000FACFEB810E2E000CFF0BEE5C78
:10051000FE4F808185B90E94E900C2CFF894FFCFD9
:10052000474F4B556C52414A4152414D000000002B
:0405300000000000C7
:00000001FF
