:100000000C9434000C9446000C9446000C9446006A
:100010000C9446000C9446000C9446000C94460048
:100020000C9446000C9446000C9446000C94460038
:100030000C9446000C9446000C9446000C94460028
:100040000C9448000C9446000C9446000C94460016
:100050000C9446000C9446000C9446000C94460008
:100060000C9446000C94460011241FBECFEFD8E03C
:10007000DEBFCDBF21E0A0E0B1E001C01D92A930FC
:10008000B207E1F70E9492000C9440020C94000029
:100090001F920F920FB60F9211242F933F938F93BD
:1000A0009F93AF93BF938091050190910601A0911A
:1000B0000701B09108013091040123E0230F2D378F
:1000C00058F50196A11DB11D2093040180930501EF
:1000D00090930601A0930701B0930801809100015D
:1000E00090910101A0910201B09103010196A11D1F
:1000F000B11D8093000190930101A0930201B09380
:100100000301BF91AF919F918F913F912F910F90DC
:100110000FBE0F901F90189526E8230F0296A11D81
:10012000B11DD2CF789484B5826084BD84B58160DE
:1001300084BD85B5826085BD85B5816085BD8091B2
:100140006E00816080936E0010928100809181002A
:100150008260809381008091810081608093810022
:10016000809180008160809380008091B1008460E4
:100170008093B1008091B00081608093B000809145
:100180007A00846080937A0080917A008260809304
:100190007A0080917A00816080937A0080917A0061
:1001A000806880937A001092C100109281001092B2
:1001B000800010928500109284008CE18093810071
:1001C00082E88093800082E080936F0020E030E03E
:1001D0004AE752E460E070E080E89FE30E94AB01F0
:1001E0000E940F01709389006093880064E170E0C1
:1001F00080E090E00E94470120E030E04AE752E4CE
:100200000E94AB010E940F017093870060938600EB
:10021000C0E0D0E02097F1F30E940000FBCF0E94E5
:1002200016016894B1110C94A50108950E948A01E9
:1002300088F09F5798F0B92F9927B751B0F0E1F0A7
:10024000660F771F881F991F1AF0BA95C9F714C057
:10025000B13091F00E94A401B1E008950C94A40182
:10026000672F782F8827B85F39F0B93FCCF3869590
:1002700077956795B395D9F73EF4909580957095ED
:1002800061957F4F8F4F9F4F0895E89409C097FB6A
:100290003EF490958095709561957F4F8F4F9F4F5D
:1002A0009923A9F0F92F96E9BB279395F6958795A1
:1002B00077956795B795F111F8CFFAF4BB0F11F464
:1002C00060FF1BC06F5F7F4F8F4F9F4F16C088230B
:1002D00011F096E911C0772321F09EE8872F762F41
:1002E00005C0662371F096E8862F70E060E02AF082
:1002F0009A95660F771F881FDAF7880F969587956E
:1003000097F9089557FD9058440F551F59F05F3FD6
:1003100071F04795880F97FB991F61F09F3F79F027
:1003200087950895121613061406551FF2CF4695A9
:10033000F1DF08C0161617061806991FF1CF86952B
:100340007105610508940895E894BB27662777270F
:10035000CB0197F908950E94BE010C942F020E94D0
:10036000210238F00E94280220F0952311F00C940D
:1003700018020C941E0211240C94A5010E94820103
:1003800070F3959FC1F3950F50E0551F629FF001E8
:10039000729FBB27F00DB11D639FAA27F00DB11D01
:1003A000AA1F649F6627B00DA11D661F829F22278A
:1003B000B00DA11D621F739FB00DA11D621F839F11
:1003C000A00D611D221F749F3327A00D611D231FE7
:1003D000849F600D211D822F762F6A2F11249F5735
:1003E00050409AF0F1F088234AF0EE0FFF1FBB1F38
:1003F000661F771F881F91505040A9F79E3F5105F7
:1004000080F00C9418020C94A5015F3FE4F3983E31
:10041000D4F3869577956795B795F795E7959F5FA0
:10042000C1F7FE2B880F911D9695879597F9089532
:1004300097F99F6780E870E060E008959FEF80EC97
:10044000089500240A94161617061806090608953A
:1004500000240A9412161306140605060895092EA0
:100460000394000C11F4882352F0BB0F40F4BF2B0F
:1004700011F460FF04C06F5F7F4F8F4F9F4F08954F
:04048000F894FFCF1E
:00000001FF
